:020000040800F2
:1000000050420020D1010008BD280008C726000882
:10001000B92800082D080008F12B00080000000096
:10002000000000000000000000000000390100088E
:10003000C5080008000000007D010008B52900087F
:10004000EB010008EB010008EB010008EB010008E0
:10005000EB010008EB010008EB010008EB010008D0
:10006000EB010008EB010008EB0100086D08000837
:10007000EB010008EB010008EB010008EB010008B0
:10008000EB010008EB010008EB0100080000000094
:10009000000000000000000000000000EB0100086C
:1000A000EB010008EB010008EB010008EB01000880
:1000B000EB010008EB010008EB010008EB01000870
:1000C000EB010008EB010008EB010008EB01000860
:1000D000EB010008A92B0008EB010008EB01000868
:1000E000EB010008EB010008EB0100080000000034
:1000F0000000000000000000000000000000000000
:1001000000000000000000000000000000000000EF
:100110000000000000000000EB010008EB010008F7
:10012000DFF810D000F078FA00480047B136000838
:10013000AFF3008050420020224B19680868B0E8F5
:10014000F00F80F30988BFF36F8F4FF0000080F34A
:1001500011884EF00D0E7047000000000648006840
:10016000006880F3088862B661B6BFF34F8FBFF3B3
:100170006F8F00DF00BF00BF08ED00E0EFF30980E4
:10018000BFF36F8F0F4B1A6820E9F00F106008B5AE
:100190004FF0400080F31188BFF34F8FBFF36F8F94
:1001A00005F09AFF4FF0000080F31188BDE8084089
:1001B00019680868B0E8F00F80F30988BFF36F8F03
:1001C000704700BF74030020EFF305807047000004
:1001D0000648804706480047FEE7FEE7FEE7FEE7E1
:1001E000FEE7FEE7FEE7FEE7FEE7FEE7C9290008B7
:1001F0002101000840EA01039B0703D009E008C978
:10020000121F08C0042AFAD203E011F8013B00F8DB
:10021000013B521EF9D27047D2B201E000F8012B27
:10022000491EFBD270470022F6E710B513460A4676
:1002300004461946FFF7F0FF204610BDF0B480EAEF
:100240000102D40F4200B2EB410F02D2024608462F
:1002500011464A0042D0C30DDDB2C1F3C752AD1AF8
:10026000202D35DAC1F3160141F4000204B15242E7
:10027000C5F1200602FA06F12A411044B3EBD05F23
:1002800023D0C4B1012DA0EBC35009DCF0BC4FF06A
:10029000004202EAC352DBB200F5000000F031B9BF
:1002A000400000F1807000EBC350A0F1807040EA84
:1002B000D170490009E0490841EAC071A0EBC35080
:1002C00000F50000400800EBC350F0BC00F010B98E
:1002D0006142012202EB4101001BF6E7F0BC7047CE
:1002E00081F00041AAE780F00040A7E780EA010220
:1002F00010B502F00043400022D04A001FD0010E8A
:1003000001EB1261C0F35600C2F3560240F4000044
:1003100042F40002A0FB022000047F39140400D044
:10032000401C50EA124001D44000491EC2B20C06E3
:1003300004EBD010401C4008802A02D003E00020CB
:1003400010BD20F00100002900DA0020184310BD84
:100350002DE9FE4F81EA030404F0004421F000413E
:1003600000944FF0000B23F0004350EA01045ED0EC
:1003700052EA03045BD0C3F30A54C1F30A552C4478
:10038000A4F2F3340194A0FB0254C1F3130141F42D
:100390008011C3F3130343F4801301FB024400FBF9
:1003A000034E840A970A44EA815447EA8357A4FB20
:1003B000076802958D0A05FB07854FEA932C04FB1D
:1003C0000C542705029D4FEA065847EA1637B5EB4D
:1003D00008056EEB070C870E920E47EA811742EA7A
:1003E0008312A7FB0201B6EB0B0164EB00042B0D9B
:1003F00043EA0C335E1844EB1C50DA465146E7FBE7
:100400000201C5F313044FEA0B3343EA14534FEAD6
:100410000432019C43EA0603A4F10C040294009CFC
:10042000CDE900B400F0AAF803B0BDE8F08F0020D9
:100430000146F9E796230022114600F062B820F049
:100440000040C10DC0F3160040F400007F2901DA1E
:1004500000207047962903DCC1F19601C84070471F
:1004600096398840704700F0004230F000400AD0D2
:10047000C10D01F56071C0F3160042EA0151C208D6
:1004800040071143704700200146704701F00043C8
:1004900030B421F0004150EA010206D00A0DA2F565
:1004A0006072C1F31301002A02DC30BC00207047E7
:1004B000440F44EAC104C100E01830BC00EBC25054
:1004C00000F016B830B50B4601460020202201246A
:1004D00009E021FA02F59D4205D303FA02F5491B12
:1004E00004FA02F52844151EA2F10102F1DC30BD28
:1004F0000029A8BF7047401C490008BF20F0010038
:10050000704710B4B0FA80FC00FA0CF050EA010415
:1005100004BF10BC704749B1CCF1200421FA04F4A7
:1005200011FA0CF118BF012121430843A3EB0C0180
:10053000CB1D4FEA00614FEA102042BF002010BCE3
:10054000704700EBC35010440029A4BF10BC704793
:10055000401C490008BF20F0010010BC704710B5D6
:10056000141E73F1000408DA401C41F100019218D6
:100570005B411A4301D120F0010010BD2DE9F04D7F
:1005800092469B4611B1B1FA81F202E0B0FA80F2D4
:100590002032904600F052F804460F4640EA0A0026
:1005A00041EA0B0153465A46084313D0114653EA19
:1005B000010019D0C8F14002504600F04EF805463F
:1005C0000E4650465946424600F038F8084305D0DA
:1005D000012004E020463946BDE8F08D00200543A7
:1005E00046EAE0762C4337430A986305E40AA0EB19
:1005F00008000022FD0A44EA47540A3002D50020D0
:100600000146E9E7010510196941DDE908450019CE
:100610006941BDE8F04DA2E7064C074D06E0E068F1
:1006200040F0010394E8070098471034AC42F6D339
:10063000FFF77AFD889D0008A89D0008202A04DBAA
:10064000203A00FA02F1002070479140C2F12003E5
:1006500020FA03F3194390407047202A04DB203A24
:1006600021FA02F00021704721FA02F3D040C2F1D2
:100670002002914008431946704770B58D1810F854
:10068000014B14F0030201D110F8012B231106D104
:1006900010F8013B03E010F8016B01F8016B521EEA
:1006A000F9D1ABB110F8012B04F00C048A1A0C2C10
:1006B00003D0A2EB84129B1C08E010F8014BA2EBC4
:1006C0000422F8E712F8014B01F8014B5B1EF9D543
:1006D000A942D4D3002070BD70B50446002520681F
:1006E000806800F00100F0B12068806820F001000F
:1006F0002168886001F0A0F805460EE001F09CF842
:10070000401B022809D9A06A40F01000A062E06AEC
:1007100040F00100E062012070BD2068806800F0B8
:1007200001000028EAD10020F6E770B505466C6AA2
:10073000A06A00F05000E0B9A06A40F40070A06226
:100740002068806800F46020B0F5602F0DD1207B18
:1007500058B9A06A20F48070A062A06A00F48050AA
:1007600018B9A06A40F00100A062204600F0DEF94E
:1007700003E0206A016B2846884770BD70B50546C6
:100780006C6AA06A40F04000A062E06A40F0040099
:10079000E062204600F0CCF970BD70B50446656A91
:1007A000284600F0C4F970BD38B504460025002085
:1007B00000902068806800F0010080BB206880689D
:1007C00040F0010021688860164800681649B0FBB7
:1007D000F1F0009002E00098401E00900098002880
:1007E000F9D101F029F8054613E001F025F8401B86
:1007F00002280ED9A06A40F01000A062E06A40F022
:100800000100E06200BF002084F8240000BF012046
:1008100038BD2068806800F001000028E5D0002085
:10082000F6E700000000002040420F0000BFFEE796
:1008300030B502460B464FF6FF70002112E0555CC2
:10084000684000240AE000F0010525B140104AF29A
:100850000105684000E04010651CECB2082CF2DB9A
:100860004D1CE9B29942EADB30BD0000084800683F
:1008700000F0020050B101200649087000BF044892
:10088000406840F002000249486000BF7047000025
:10089000000002402500002030B590F840500124AF
:1008A000AC40C56B6C60046863604468102C04D174
:1008B0000468A2600468E16003E00468A160046861
:1008C000E26030BD70470000F8B504460026002005
:1008D000009000BF94F82400012801D10220F8BD47
:1008E000012084F8240000BF2046FFF7F5FE0646ED
:1008F000002E62D1A06A20F4885040F00200A0626D
:10090000022001F049F830490968B1FBF0F04000DD
:10091000009002E00098401E009000980028F9D155
:100920002046FFF741FF2068806840F008002168FA
:10093000886000F081FF054611E000F07DFF401B5C
:100940000A280CD9A06A20F0020040F01000A06232
:1009500000BF002084F8240000BF0120BFE720680A
:10096000806800F008000028E7D12068806840F027
:1009700004002168886000F05FFF054611E000F088
:100980005BFF401B0A280CD9A06A20F0020040F04F
:100990001000A06200BF002084F8240000BF0120E6
:1009A0009DE72068806800F004000028E7D1A06A75
:1009B00020F0020040F00100A06200BF002084F897
:1009C000240000BF30468AE70000002038B5024608
:1009D00000230020009000BF92F82400012801D1DC
:1009E000022038BD012082F8240000BF4868072893
:1009F00012D21068406B0C79641E04EB84051F242E
:100A0000AC40A0430D796D1E05EB85050C68AC402C
:100A100020431468606327E048680D2812D21068EC
:100A2000006B0C79E41F04EB84051F24AC40A04349
:100A30000D79ED1F05EB85050C68AC40204314686B
:100A4000206311E01068C06A0C790D3C04EB84054A
:100A50001F24AC40A0430D790D3D05EB85050C68C6
:100A6000AC4020431468E06208680A2812D310687A
:100A7000C0680C780A3C04EB44050724AC40A04352
:100A80000D780A3D05EB45058C68AC4020431468A1
:100A9000E0600FE0106800690C7804EB440507245F
:100AA000AC40A0430D7805EB45058C68AC40204375
:100AB000146820610868102802D00868112827D11E
:100AC000174C1068A0421ED11068806800F4000026
:100AD000F0B91068806840F400001468A0600868ED
:100AE000102815D10F4800680F4CB0FBF4F000EB54
:100AF00080004000009002E00098401E00900098A6
:100B00000028F9D104E0906A40F0200090620123AF
:100B100000BF002082F8240000BF184661E70000F3
:100B2000002401400000002040420F007047704741
:100B3000704700002DE9F0410446002700250026FB
:100B4000A84614B90120BDE8F081A06810B1207D4D
:100B500000B100BFA06A30B90020E06284F8240030
:100B6000204600F089F82046FFF7B6FD0746A06A48
:100B700000F01000002873D1002F71D1A06A20F47A
:100B8000885040F00200A062E16960680843217B60
:100B900040EA41000643A068B0F5807F02D0A0681B
:100BA000012802D14FF4807000E000200543207D31
:100BB000012811D1207B38B9A069401E4FF4006193
:100BC00041EA4030054307E0A06A40F02000A062FF
:100BD000E06A40F00100E0622068406820F469406B
:100BE00028432168486020688068214908403043D4
:100BF00021688860A068B0F5807F02D0A0680128D5
:100C000002D14FF4807000E00020B0F5807F03D166
:100C1000208A401E4FEA00582068C06A20F4700005
:100C200040EA08002168C8622068806811490840CD
:100C3000B04208D10020E062A06A20F0020040F03B
:100C40000100A06211E0A06A20F0020040F0100054
:100C5000A062E06A40F00100E062012705E0FFE7E2
:100C6000A06A40F01000A062012738466BE7000040
:100C7000FDF7E1FFFE0E1FFF10B58AB004461D49C7
:100C80002068884233D100200290039004900590A0
:100C900000BF00BF1848806940F4007016498861A1
:100CA0000846806900F40070019000BF00BF00BFDB
:100CB00000BF00BF0846806940F004008861084614
:100CC000806900F00400019000BF00BF00BF022057
:100CD00002908003049002A800F0EAFE80200690B3
:100CE0000320079006A9054800F0FEFB00BF0AB0EC
:100CF00010BD000000240140001002400008014027
:100D00002DE9F04104460D46164600275749206854
:100D1000884203D056492068884205D15348001DB7
:100D2000006800F4702000E0002000287ED100BFA1
:100D300094F82400012802D10220BDE8F0810120AE
:100D400084F8240000BF2046FFF72EFD0746002F41
:100D50006DD1A06A40F60161884340F48070A062C2
:100D600043492068884209D14048001D006800F4CA
:100D7000702008B9012002E0002000E0012078B1D5
:100D8000A06A20F48010A0622068406800F48060AF
:100D900000B3A06A20F4005040F48050A06219E033
:100DA000A06A40F48010A06230492068884203D0D5
:100DB0002F492068884205D12C48001D006800F4A6
:100DC000806000E0002028B1A06A20F4005040F4C8
:100DD0008050A062A06A00F4805020B1E06A20F048
:100DE0000600E06201E00020E06200BF002084F81D
:100DF000240000BF1F48216A88621F48216AC86218
:100E00001E48216A08636FF00200216808602068AC
:100E1000806840F4807021688860226802F14C018B
:100E200033462A46206A00F011FB01E01AE014E084
:100E30002068806800F46020B0F5602F06D120683B
:100E4000806840F4A000216888600CE02068806819
:100E500040F480102168886005E000BF002084F81D
:100E6000240000E00127384667E700000024014025
:100E7000002801402B0700089B0700087D07000899
:100E800010B5024692F82030012B01D0022B1CD164
:100E900001F0010028B11068806840F080001468FB
:100EA000A06001F0020028B11068806840F40040A2
:100EB0001468A06001F0040028B11068806840F454
:100EC00000001468A060002010BD506A40F480202B
:100ED00050620120F8E7F0B504460D461E4694F82E
:100EE000207020688368A86800B900E000BF012F67
:100EF00001D0022F7CD103F0806030B903F0006094
:100F000018B903F08050002873D0C3F3016102299F
:100F100005D9606A40F4000060620120F0BD012044
:100F200088403060A86860B9B5F800C0E86840EA59
:100F30004C5C206800F5C07000EB0110C0F800C0E8
:100F40000FE0D5E901C040EACC00D5F80CC040EA7A
:100F50000C00D4F800C00CF5C07C0CEB011CCCF8E4
:100F60000000D5F810C0206800F5C07000EB01103B
:100F7000C0F804C0287D01280ED1206800F5C0709B
:100F800000EB0110406840F4807C206800F5C070E0
:100F900000EB0110C0F804C0D079000692F806C03A
:100FA00040EA0C4092F805C040EA0C2C10794CEA5B
:100FB000000C206800F5C07000EB0110C0F80CC0F8
:100FC000D078000692F802C040EA0C4092F801C0C6
:100FD00040EA0C2092F800C040EA0C00D4F800C0AF
:100FE0000CF5C07C0CEB011CCCF80800206801E07B
:100FF00016E00FE000F5C07000EB0110006840F053
:10100000010C206800F5C07000EB0110C0F800C0B2
:10101000002083E7606A40F40010606201207DE7F1
:10102000606A40F480206062012077E7F0B50446F2
:101030000A46216894F82050012D01D0022D74D168
:10104000D1F8000240F00100C1F80002107D00F06C
:101050001F06012000FA06F3D1F81C029843C1F8DC
:101060001C02D069C8B9D1F80C029843C1F80C022F
:10107000908880B2968940EA064601F5107057695B
:1010800040F83760108880B2168940EA064601F5BC
:101090001070576900EBC7004660D069012819D16C
:1010A000D1F80C021843C1F80C02908880B216885F
:1010B00040EA064601F51070576940F8376090899C
:1010C00080B2168940EA064601F51070576900EBB8
:1010D000C7004660906928B9D1F804029843C1F866
:1010E000040204E0D1F804021843C1F804021069B4
:1010F00028B9D1F814029843C1F8140204E0D1F8D9
:1011000014021843C1F81402106A012804D1D1F85E
:101110001C021843C1F81C02D1F8000220F00100A3
:10112000C1F800020020F0BDFFE7606A40F48020B3
:1011300060620120F7E70146002091F82020012A93
:1011400001D0022A11D10B689B6803F0806303B1C0
:10115000401C0B689B6803F0006303B1401C0B68E4
:101160009B6803F0805303B1401C704770B5044680
:101170000CB9012070BD94F8200010B9204600F091
:10118000AFF82068006820F002002168086000F0D5
:1011900053FB05460DE000F04FFB401B0A2808D921
:1011A000606A40F400306062052084F8200001206D
:1011B000E0E72068406800F002000028EBD12068DA
:1011C000006840F001002168086000F035FB05462A
:1011D0000DE000F031FB401B0A2808D9606A40F49A
:1011E00000306062052084F820000120C2E72068FA
:1011F000406800F001000028EBD0207E012806D1D5
:101200002068006840F080002168086005E02068E0
:10121000006820F0800021680860607E012806D107
:101220002068006840F040002168086005E0206800
:10123000006820F0400021680860A07E012806D1E7
:101240002068006840F020002168086005E0206800
:10125000006820F0200021680860E07E012806D1A7
:101260002068006820F010002168086005E0206810
:10127000006840F0100021680860207F012806D136
:101280002068006840F008002168086005E02068D8
:10129000006820F0080021680860607F012806D1FE
:1012A0002068006840F004002168086005E02068BC
:1012B000006820F0040021680860D4E902010843B6
:1012C00021690843616908436168491E0843216830
:1012D000C86100206062012084F82000002049E7F6
:1012E00010B586B0044624492068884241D100BF29
:1012F00000BF2248806940F0040020498861084608
:10130000806900F00400019000BF00BF00BF00BF73
:1013100000BF0846806940F0040088610846806983
:1013200000F00400019000BF00BF00BF00BF0846EE
:10133000C06940F00070C8610846C06900F00070E4
:10134000019000BF00BF881402900220039001208A
:1013500004900320059002A9094800F0C5F84FF455
:10136000006002900020039002A9054800F0BCF83C
:1013700000BF06B010BD0000006400400010024035
:101380000008014070B5044694F82000012822D1DD
:10139000022084F820002068006820F00100216805
:1013A000086000F049FA05460DE000F045FA401BE0
:1013B0000A2808D9606A40F400306062052084F889
:1013C0002000012070BD2068406800F00100002866
:1013D000EBD16062F6E7606A40F4002060620120B1
:1013E000F0E700000146002209B901207047164BC2
:1013F0000868C01A1423B0FBF3F080000864124898
:101400000838C863022081F821000868026843F6A2
:10141000F0708243D1E901031843CB6818430B698C
:1014200018434B6918438B691843CB69184302432F
:101430000868026000208863012081F821000020F4
:1014400081F8200000BFD1E7080002402DE9F041FB
:1014500004460D4616461F464FF0000800BF94F89C
:101460002000012802D10220BDE8F081012084F88B
:10147000200000BF94F8210001282CD1022084F81C
:1014800021000020A0632068006820F0010021688E
:1014900008603B46324629462046FFF7FDF9E06AE0
:1014A00030B12068006840F00E00216808600BE051
:1014B0002068006820F00400216808602068006847
:1014C00040F00A00216808602068006840F00100D0
:1014D0002168086006E000BF002084F8200000BFFB
:1014E0004FF002084046BFE72DE9F84703460022C7
:1014F00094466EE14FF0010808FA02F4D1F800803A
:1015000008EA0400A0427DD1DFF8DCA2D1F8048013
:10151000A8EB0A09D0453AD014DCB8F1030F50D03B
:1015200009DCB8F1000F31D0B8F1010F1CD0B8F1CF
:10153000020F49D120E0B8F1110F18D0B8F1120F05
:1015400042D11EE0B9F5881F25D006DCB9F5803FF1
:1015500020D0B9F5801F37D11AE0B9F5001F18D097
:10156000B9F5041F30D117E0D1F80CC02DE0D1F847
:101570000C8008F1040C28E0D1F80C8008F1080C6C
:1015800023E0D1F80C8008F10C0C1EE000BF00BF76
:1015900000BF00BF00BF00BFD1F80880B8F1000F46
:1015A00002D14FF0040C0BE0D1F80880B8F1010F24
:1015B00003D14FF0080C1C6102E04FF0080C5C6195
:1015C00003E04FF0000C00E000BF00BFFF2801D88F
:1015D000984601E003F104084646FF2802D84FEA86
:1015E000820803E0A2F108084FEA88084746D6F8C7
:1015F00000804FF00F0909FA07F928EA09080CFAE8
:1016000007F900E088E048EA0908C6F80080D1F848
:10161000048008F08058B8F1805F7DD100BFDFF80A
:10162000CC81D8F8188048F00108DFF8C091C9F8DB
:101630001880C846D8F8188008F00108CDF8008056
:1016400000BF00BF4FEAB9384FEA920958F8295055
:101650004FEA82784FEA18794FF00F0808FA09F834
:1016600025EA0805DFF88881434502D14FF00008DC
:1016700016E0DFF88081434502D14FF001080FE00A
:10168000DFF87481434502D14FF0020808E0DFF82B
:101690006C81434502D14FF0030801E04FF004088C
:1016A0004FEA82794FEA197908FA09F848EA0505FC
:1016B000DFF84C814FEA920948F82950D1F80480AC
:1016C00008F48038B8F5803F0AD1DFF83881D8F8BF
:1016D000008048EA0008DFF82C91C9F8008009E092
:1016E000DFF82081D8F8008028EA0008DFF814919C
:1016F000C9F80080D1F8048008F40038B8F5003F3C
:1017000010D1DFF8008108F10408D8F8008048EA19
:101710000008DFF8F09000E05AE009F10409C9F888
:1017200000800DE0DFF8DC8008F10408D8F80080C4
:1017300028EA0008DFF8CC9009F10409C9F8008014
:10174000D1F8048008F48018B8F5801F0ED1DFF8B6
:10175000B48008F10808D8F8008048EA0008DFF8EB
:10176000A49009F10809C9F800800DE0DFF8948021
:1017700008F10808D8F8008028EA0008DFF884900B
:1017800009F10809C9F80080D1F8048008F40018AC
:10179000B8F5001F0ED1DFF86C8008F10C08D8F8FE
:1017A000008048EA0008DFF85C9009F10C09C9F8EC
:1017B00000800DE0DFF84C8008F10C08D8F80080BC
:1017C00028EA0008DFF83C9009F10C09C9F800800C
:1017D000521CD1F8008028FA02F8B8F1000F7FF40B
:1017E00089AEBDE8F887000000001110001002402B
:1017F00000080140000C01400010014000140140AD
:101800000800014000040140024693680B400BB100
:10181000012000E00020704710B5C26821EA0203F1
:1018200002EA010443EA0443036110BD0AB1016105
:1018300001E00B0403617047014800687047000035
:101840001C00002003480068034909780844014946
:10185000086070471C0000202400002010B50848D4
:10186000006840F0100006490860032000F080F88E
:101870000F2000F007F800F02BF8002010BD00004A
:101880000020024070B504460E4800784FF47A718B
:10189000B1FBF0F00C490968B1FBF0F5284600F007
:1018A0001BFD08B1012070BD102C07D2002221467B
:1018B000501E00F01EF80548046001E00120F2E728
:1018C0000020F0E72400002000000020200000207D
:1018D000704701460846002809DB00F01F0301227B
:1018E0009A4043099B0003F1E023C3F8002100BFA5
:1018F00070472DE9F05F80460D461646002701F03F
:1019000089F9074639462A46334601F00700C0F1F7
:10191000070ABAF1040F02D94FF0040A01E0C0F13E
:10192000070AD14600F1040ABAF1070F02D24FF0BC
:10193000000A01E0A0F1030AD4464FF0010A0AFAB6
:1019400009FAAAF1010A0AEA020A0AFA0CFA4FF0A5
:10195000010B0BFA0CFBABF1010B0BEA030B4AEA90
:101960000B042146404601F05DF9BDE8F09F000000
:1019700000BF00F00702064B19684FF6FF0319403D
:10198000044B0B4343EA0221014B196000BF70472F
:101990000CED00E00000FA052DE9F04385B00646A5
:1019A0003BA30FCB01AC0FC43DA0006800904FF0EB
:1019B0000008002500270024A146012E30D0022E69
:1019C00055D0102E5ED137484468006800F0807012
:1019D00000B301A8C4F38341475C04F4803070B1C4
:1019E00030484068C0F340401DF8008004F4803067
:1019F00040B12D48B0FBF8F000FB07F502E02B48A2
:101A000007FB00F52748406800F48000B0F5800F20
:101A100001D1A94603E068000321B0FBF1F932E0EF
:101A20002048046A04F44070B0F5807F05D104F0CA
:101A3000020010B14FF4004918E004F44070B0F512
:101A4000007F07D11748406A00F0020010B149F644
:101A500040490BE004F44070B0F5407F06D11148D6
:101A6000006800F4003008B14FF224490BE000F0A8
:101A700093F90C494968C1F38131491C4900B0FB15
:101A8000F1F900E000BF00BF484605B0BDE8F083B3
:101A900002030405060708090A0B0C0D0E0F1010AF
:101AA000010200000010024000127A0000093D000F
:101AB000F8B5044600260025207800F00100002833
:101AC0006BD000274348C06900F0805070B900BF58
:101AD0004048C06940F080503E49C8610846C0692E
:101AE00000F08050009000BF00BF01273A48006816
:101AF00000F48070B0B93848006840F4807036490E
:101B00000860FFF799FE064606E0FFF795FE801B8A
:101B1000642801D90320F8BD2F48006800F48070C4
:101B20000028F2D02B48006A00F440752DB3A0883D
:101B300000F44070A84220D02648006A20F4407586
:101B4000012026490860002008602248056205F04F
:101B5000010090B1FFF770FE064608E0FFF76CFE4B
:101B6000801B41F28831884201D90320D3E719480C
:101B7000006A00F002000028F0D01648006A20F445
:101B800040706168084313490862012F04D1084678
:101B9000C06920F08050C86100BF207800F00200CA
:101BA000022807D10B48406820F44040A168084350
:101BB00008494860207800F01000102807D1054837
:101BC000406820F48000E168084302494860002032
:101BD000A1E70000001002400070004040044242B3
:101BE00070B504460D460CB9012070BD5A48006816
:101BF00000F00700A8420ED25748006820F0070006
:101C00002843554908600846006800F00700A842CC
:101C100001D00120E9E7207800F0020002281DD160
:101C2000207800F00400042805D14C48406840F4B6
:101C3000E0604A494860207800F00800082805D193
:101C40004648406840F46050444948604348406812
:101C500020F0F000A168084340494860207800F077
:101C6000010078B36068012806D13C48006800F4A0
:101C7000003090B90120B8E76068022806D13748E3
:101C8000006800F0007040B90120AEE733480068FA
:101C900000F0020008B90120A7E73048406820F0B2
:101CA0000300616808432D494860FFF7C5FD0646FB
:101CB00009E0FFF7C1FD801B41F28831884202D95B
:101CC000032092E707E02548406800F00C006168B7
:101CD000B0EB810FEDD12048006800F00700A8426A
:101CE0000ED91D48006820F0070028431A490860F3
:101CF0000846006800F00700A84201D0012074E700
:101D0000207800F00400042807D11448406820F42B
:101D1000E060E168084311494860207800F008005D
:101D2000082808D10D48406820F46050216940EA35
:101D3000C1000A49486000F03FF808494968C1F30A
:101D40000311074A515CC84006490860064800680C
:101D5000FFF798FD002048E70020024000100240F5
:101D6000D86D000800000020200000200148006815
:101D7000704700000000002000B5FFF7F7FF04499E
:101D80004968C1F30221034A515CC84000BD00000C
:101D900000100240E86D000800B5FFF7E7FF0449B6
:101DA0004968C1F3C221034A515CC84000BD00002C
:101DB00000100240E86D0008F0B585B00FF26C0C21
:101DC0009CE8E01001A8A0E8E0101CA52D68009593
:101DD00000210022002300240020194D696801F031
:101DE0000C05F5B1042D02D0082D19D101E01548DC
:101DF00019E001ADC1F38346AC5D01F4803555B106
:101E00000F4D6D68C5F340451DF805200D4D654328
:101E1000B5FBF2F302E00C4D04FB05F3184602E0BB
:101E200000BF084800BF00BF05B0F0BD02030405B5
:101E3000060708090A0B0C0D0E0F10100102000016
:101E40000010024000127A0000093D00F8B5044677
:101E50000CB90120F8BD207800F00100002878D0EE
:101E6000F848406800F00C0004280CD0F5484068A1
:101E700000F00C00082811D1F248406800F48030CE
:101E8000B0F5803F0AD1EF48006800F40030002828
:101E90005FD0606800285CD10120DBE700BF60688C
:101EA000B0F5803F06D1E748006840F48030E5494E
:101EB000086028E0606858B9E248006820F4803083
:101EC000E04908600846006820F4802008601AE0B5
:101ED0006068B0F5A02F0BD1DA48006840F480208C
:101EE000D84908600846006840F4803008600AE07D
:101EF000D448006820F48030D24908600846006861
:101F000020F48020086000BF606888B1FFF794FC6F
:101F1000054606E0FFF790FC401B642801D903202A
:101F200098E7C848006800F400300028F2D010E0BC
:101F3000FFF782FC054606E0FFF77EFC401B6428A5
:101F400001D9032086E7BF48006800F4003000286C
:101F5000F2D1207800F00200022857D1B948406839
:101F600000F00C0050B1B748406800F00C000828A1
:101F700018D1B448406800F4803098B9B14800687E
:101F800000F0020020B12069012801D0012061E7A2
:101F9000AC48006820F0F800616940EAC100A94936
:101FA000086033E02069E8B10120A7490860FFF725
:101FB00043FC054606E0FFF73FFC401B022801D921
:101FC000032047E79F48006800F002000028F2D095
:101FD0009C48006820F0F800616940EAC100994916
:101FE000086013E0002098490860FFF725FC0546CB
:101FF00006E0FFF721FC401B022801D9032029E756
:102000009048006800F002000028F2D1207800F02B
:10201000080008282DD1A069B8B101208B490860BB
:10202000FFF70AFC054606E0FFF706FC401B022806
:1020300001D903200EE78348406A00F0020000281F
:10204000F2D0012000F0A2FC13E000207F490860DC
:10205000FFF7F2FB054606E0FFF7EEFB401B022808
:1020600001D90320F6E67748406A00F00200002814
:10207000F2D1207800F00400042873D100277148C1
:10208000C06900F0805070B900BF6E48C06940F070
:1020900080506C49C8610846C06900F080500090CB
:1020A00000BF00BF01276A48006800F48070B0B923
:1020B0006748006840F4807065490860FFF7BCFB22
:1020C000054606E0FFF7B8FB401B642801D9032052
:1020D000C0E65F48006800F480700028F2D000BFBE
:1020E000E068012806D15748006A40F001005549D0
:1020F000086227E0E06858B95248006A20F0010001
:10210000504908620846006A20F00400086219E09D
:10211000E06805280BD14B48006A40F004004949AB
:1021200008620846006A40F0010008620AE045487B
:10213000006A20F00100434908620846006A20F066
:102140000400086200BFE068A0B1FFF775FB054618
:1021500009E0FFF771FB401B41F28831884202D948
:10216000032077E622E03748006A00F002000028EA
:10217000EFD012E0FFF760FB054608E0FFF75CFBDD
:10218000401B41F28831884201D9032062E62D4884
:10219000006A00F002000028F0D1012F05D1294883
:1021A000C06920F080502749C86100BFE069C8B30A
:1021B0002448406800F00C00082860D0E06902283C
:1021C00048D1002020490866FFF736FB054606E0A7
:1021D000FFF732FB401B022801D903203AE61948D9
:1021E000006800F000700028F2D1206AB0F5803F4E
:1021F00007D11448406820F40030A1680843114911
:102200004860D4E9080108430E49496821F4741173
:1022100008430C49486001200B490866FFF70CFB96
:10222000054607E03DE0FFF707FB401B022801D908
:1022300003200FE60348006800F000700028F2D089
:102240002FE00000001002400000424280044242A1
:1022500000700040002014490866FFF7EDFA0546BB
:1022600006E0FFF7E9FA401B022801D90320F1E557
:102270000E48006800F000700028F2D111E0E0691B
:10228000012800D1E6E50948466806F48031206A55
:10229000814204D106F47011606A814201D00120AC
:1022A000D8E50020D6E500000000424200100240C0
:1022B000042808D14FF0E021096941F004014FF0F2
:1022C000E022116107E04FF0E021096921F00401EB
:1022D0004FF0E0221161704770B504462546681E34
:1022E000B0F1807F01D301200FE0681E4FF0E021A4
:1022F00048610F214FF0FF3000F094FC00204FF0B8
:10230000E021886107200861002070BD30B50246D9
:102310000B4600BF92F83C00012801D1022030BDDD
:10232000012082F83C0000BF022082F83D001068C6
:1023300044681068816824F07004186804431068C9
:102340004460104D1068A8420BD01068B0F1804F67
:1023500007D00D4D1068A84203D00C4D1068A8425C
:1023600005D121F080015868014310688160012087
:1023700082F83D0000BF002082F83C0000BF00BF93
:10238000CDE70000002C01400004004000080040A0
:1023900010B504460CB9012010BD94F83D0028B9D1
:1023A000002084F83C00204600F026F8022084F843
:1023B0003D00211D206800F009FB012084F8460043
:1023C00000BF84F83E0001213F2001554020015507
:1023D0004120015500BF00BF012084F84200432086
:1023E0000155442001554520015500BF012084F8C6
:1023F0003D000020D0E7000038B504460D492068B4
:10240000884215D100BF0C48C06940F002000A495B
:10241000C8610846C06900F00200009000BF00BF1C
:10242000002206211D20FFF764FA1D20FFF751FA54
:1024300038BD00000004004000100240014691F841
:102440003D00012801D001207047022081F83D00A5
:10245000124B086898420BD00868B0F1804F07D043
:102460000F4B0868984203D00E4B086898420CD175
:102470000868806800F00702062A0CD00868006827
:1024800040F001000B68186005E00868006840F043
:1024900001000B6818600020D6E70000002C014006
:1024A000000400400008004010B504460CB90120AB
:1024B00010BDA06900B100E000BF94F8390028B950
:1024C000002084F83800204600F027F8242084F803
:1024D00039002068C06820F400502168C860204698
:1024E00000F0AEFA2068006920F49040216808618D
:1024F0002068406920F02A00216848612068C0688F
:1025000040F400502168C8600020E063202084F877
:10251000390084F83A000020CAE770472DE9F84FE7
:1025200004460E46174699464FF0000A94F83A00C2
:1025300020285DD106B117B90120BDE8F88F00BF92
:1025400094F83800012801D10220F6E7012084F830
:10255000380000BF0020E063222084F83A00FFF733
:102560006BF98246A785E785A068B0F5805F04D146
:10257000206910B90025B04602E035464FF000084A
:1025800000BF002084F8380000BF29E05346002235
:1025900020212046CDF8009000F0D0FA08B10320A9
:1025A000CBE745B920684068C0F30800A8F80000F0
:1025B00008F1020811E0A068B0F5805F03D0A068C0
:1025C00028B9206918B920684068287004E020689C
:1025D000406800F07F0028706D1CE08D401EE08593
:1025E000E08D0028D2D1202084F83A000020A4E712
:1025F0000220A2E72DE9F84F04460E4617469946F9
:102600004FF0000A94F8390020285AD106B117B9C2
:102610000120BDE8F88F00BF94F83800012801D1EF
:102620000220F6E7012084F8380000BF0020E063B4
:10263000212084F83900FFF7FFF88246A784E78459
:10264000A068B0F5805F04D1206910B90025B046BC
:1026500002E035464FF0000800BF002084F8380043
:1026600000BF1BE05346002280212046CDF8009099
:1026700000F064FA08B10320CBE745B9B8F80000D0
:10268000C0F308002168486008F1020803E02878D8
:10269000216848606D1CE08C401EE084E08C0028BE
:1026A000E0D15346002240212046CDF8009000F0B2
:1026B00045FA08B10320ACE7202084F83900002057
:1026C000A7E70220A5E700BFFEE710B5012000F054
:1026D0003FFD10BD00B585B000BF00BF1A4880693E
:1026E00040F01000184988610846806900F0100029
:1026F000009000BF00BF00BF00BF00BF0846806958
:1027000040F0080088610846806900F008000090E9
:1027100000BF00BF00BF0815019001200290039088
:102720000320049001A90948FEF7DEFE4FF4006083
:1027300001901120029001A90448FEF7D5FE00F097
:1027400067F805B000BD000000100240000C014019
:1027500070B50446002526E000BFE00928B101223B
:10276000D1021648FFF762F805E000224FF400613D
:102770001248FFF75BF800BFFFF7A7FF00BF012279
:1027800091020E48FFF752F800BFFFF79EFF00BF0F
:1027900000224FF480610948FFF748F800BF600647
:1027A000040E681CC5B2082DD6DB00BF0122D10281
:1027B0000248FFF73BF800BF70BD0000000C01406D
:1027C00010B500BF0122D1021048FFF72FF800BF5B
:1027D00000BF012291020D48FFF728F800BFFFF764
:1027E00074FF00BF00224FF400610848FFF71EF895
:1027F00000BFFFF76AFF00BF00224FF4806103486B
:10280000FFF714F800BFFFF760FF10BD000C014098
:1028100010B500BF00224FF400610C48FFF706F826
:1028200000BFFFF752FF00BF012291020748FEF7E9
:10283000FDFF00BFFFF749FF00BF0122D10203489F
:10284000FEF7F4FF00BFFFF740FF10BD000C014092
:1028500070B50024002500BF0122D1021548FEF703
:10286000E5FF00BFFFF731FF00BF012291021148D1
:10287000FEF7DCFF00BFFFF728FF07E0601CC4B2D3
:10288000FA2C03DDFFF7C4FF012506E04FF40061D9
:102890000848FEF7B9FF0028F0D100BF00BF0022B2
:1028A0004FF480610348FEF7C1FF00BFFFF70DFF43
:1028B000284670BD000C014000BFFEE770470000D5
:1028C0002DE9FC4F05460F46904601950097B8F15B
:1028D000050F0ED2DFE808F0030507090B00264CB0
:1028E00009E0264C07E0264C05E0264C03E0264C88
:1028F00001E0BDE8FC8F00BF002639E04FF0000981
:1029000031E006EB460004EB800010F809B04FF010
:10291000000A15E00BF0010028B1012239462846D3
:1029200001F016FA04E000223946284601F010FAB8
:102930004FEA6B0B781CC7B20AF1010000F0FF0AE6
:10294000BAF1080FE6DB681CC5B20198281A0C28FA
:1029500004D1019D00980830C0B20090009F09F199
:10296000010000F0FF09B9F10C0FCADB701CC6B200
:10297000022EC3DB00BFBCE72E0000204600002073
:102980005E000020760000208E00002008B5084977
:102990000968C9084FF47A72B1FBF2F14143009122
:1029A00000BF00BF00994A1E00920029F9D108BD5E
:1029B0000000002010B5FEF745FF03F0C5FE01281A
:1029C00001D003F08BFC10BD7047000010B5026809
:1029D000184B984208D0B0F1804F05D0164B984262
:1029E00002D0164B984203D122F070024B681A4372
:1029F000104B984208D0B0F1804F05D00E4B984252
:102A000002D00E4B984203D122F44072CB681A4395
:102A100022F080034C6943EA040202608B68C362BF
:102A20000B688362034B984201D10B690363012356
:102A3000436110BD002C014000040040000800402C
:102A400070B504462168096921F44051E2681143D8
:102A5000226811612269A1681143626941EA020595
:102A60002168C96841F20C62914329432268D16010
:102A70002168496921F44071A269114322685161BA
:102A80002D4A2168914202D1FFF786F901E0FFF754
:102A900073F900EBC00101EB001162689200B1FB19
:102AA000F2F100EBC00202EB001263689B00B2FB84
:102AB000F3F26423B2FBF3F202EBC20303EB021264
:102AC000A1EB8201322202EB01116422B1FBF2F18F
:102AD00001F0F00100EBC00202EB001263689B0002
:102AE000B2FBF3F26423B2FBF3F201EB021200EB50
:102AF000C00101EB001163689B00B1FBF3F100EB37
:102B0000C00303EB00136668B600B3FBF6F364265C
:102B1000B3FBF6F303EBC30606EB0313A1EB830150
:102B2000322303EB01116423B1FBF3F101F00F0138
:102B300011442268916070BD003801402DE9F041D8
:102B400004460D4617469846069E21E0701CF8B1D3
:102B50002EB1FEF771FEA0EB0800B04218D9206834
:102B6000C06820F4D0702168C8602068406920F0F7
:102B7000010021684861202084F8390084F83A0077
:102B800000BF002084F8380000BF0320BDE8F081BA
:102B9000206800682840A84201D1012000E0002000
:102BA000B842D3D00020F1E708B50E4800680068AD
:102BB000C0F34010A8B14FF47A7301226946094866
:102BC000FFF7ACFC0848007840280ADA9DF80000BE
:102BD0000649054A1278885403480078401C024987
:102BE000087008BDBC1500205E030020FC15002005
:102BF00000BFFEE70FB4054B10B503A9044A0298C5
:102C000000F034F810BC5DF814FB000099310008A6
:102C1000F403002002480068C0F30220704700005F
:102C20000CED00E010B5002804DB0A07130E054A7E
:102C3000135406E00A07140E034A00F00F031B1F8B
:102C4000D45410BD00E400E018ED00E002E008C834
:102C5000121F08C1002AFAD170477047002001E016
:102C600001C1121F002AFBD1704700002DE9FF4F60
:102C70008BB09A460F460546002606E025280BD065
:102C800052460D9990476D1C761C28780028F5D186
:102C90000FB03046BDE8F08F0024A0460122604905
:102CA00000E0044315F8013F203B02FA03F008421C
:102CB000F7D128782E2817D115F8010F44F0040415
:102CC0002A280ED06FF02F022878A0F130010929B0
:102CD0000AD808EB880102EB410100EB01086D1CEA
:102CE000F2E757F8048B6D1C287869283ED006DC83
:102CF0000028CDD063280BD0642804D136E0732897
:102D000010D075284BD052460D999047761C85E01F
:102D100017F8040B8DF8000000208DF80100E9463B
:102D2000012003E057F8049B4FF0FF3061074FF09C
:102D3000000401D40AE0641C44450DDA8442FADB45
:102D400019F804100029F6D106E0641C8442FCDB6B
:102D500019F804100029F8D1264404E019F8010BF1
:102D600052460D999047641EF8D257E001CF4FF0BC
:102D70000A0B002802DA40422D2102E0210504D589
:102D80002B218DF82410012103E0E10705D020213B
:102D9000F7E70DF1200908910CE00021F9E701CFD8
:102DA0004FF00A0BF9E75946FDF78CFB01F13002B1
:102DB00009F8012D0028F6D1ADEB090000F1200B38
:102DC000600701D44FF00108D84502DDA8EB0B00E5
:102DD00000E000208046002406E009A85246005D7D
:102DE0000D999047641C761C08988442F5DB04E03A
:102DF000302052460D999047761CB8F10001A8F199
:102E00000108F5DC05E019F8010B52460D999047D1
:102E1000761CBBF10001ABF1010BF4DC6D1C34E757
:102E2000092801001249096821F00101104A1160C6
:102E30001049896821F001010E4A916000BF0D49D7
:102E4000896801F001010029F9D10A49C86089683F
:102E500041F00101074A91600549096841F001010B
:102E6000034A11601146096841F4800111607047FE
:102E7000082401400000024001B58CB000200490FD
:102E800005900690079001900290039000BF00BF4C
:102E90004848806940F40070464988610846806966
:102EA00000F40070009000BF00BF00BF00BF0846E4
:102EB000806940F0040088610846806900F00400E1
:102EC000009000BF00BF00BF0846406940F001000D
:102ED00048610846406900F00100009000BF00BF53
:102EE000022004908003069004A8FEF7E1FD032071
:102EF0000890099008A93048FEF7F6FA2F483049A3
:102F000008600020486000212D4881608021C16058
:102F1000490001618900416120218161C901C161CC
:102F2000FEF760FA00BF2648264908620846244991
:102F3000486200BF244823490860002048604FF4DD
:102F4000807120488160002101730221016100210C
:102F5000017581614FF40021C161FDF7EBFD194856
:102F6000FDF7B2FC09200190012002900720039098
:102F700001A91448FDF72AFD0820019002200290C3
:102F800001A91048FDF722FD002205210B20FEF7C4
:102F9000B0FC0B20FEF79DFC00230B494C31084888
:102FA0000C9AFEF753FA00220CA90648FDF7A8FE7A
:102FB0000DB000BD00100240000C014008000240AE
:102FC000EC04002030050020002401402DE9F041F0
:102FD0008AB004460D4616461F46DDF84080264856
:102FE0002649086008464760C0F80880C46006614A
:102FF000456100210176417681760121C17600216B
:1030000001774177FEF7B2F818B101200AB0BDE8A8
:10301000F0811A480068406940F0020017490968C9
:1030200048611420FEF755FC002207211420FEF70A
:1030300060FC002005900690012007900020009081
:1030400001904FF6E070029006200390002004905B
:10305000012008900E20099069460848FDF7E6FF18
:1030600008B10220D2E70548FEF78CF908B1032029
:10307000CCE70020CAE700000064004060050020A3
:103080002DE9F84304460D4616460120009000271E
:103090004FF06408124804604460002010498860C2
:1030A000C860084606616B462A460E48FDF713FFC6
:1030B00010B10120BDE8F8830BE07F1C642F05D31D
:1030C00008480099FDF7DCFE0220F3E70A2000F033
:1030D0003FF80448FEF72FF80328EED10020E9E777
:1030E000880500206005002070B5044600204FF0E0
:1030F000E0210861FFF7DCF8E11704EB5171C1F33F
:10310000CF010C4A1180E11704EB5171CD104FF43F
:103110007A7045434FF0E020006940F002004FF024
:10312000E021086108464561006940F0010008613E
:1031300070BD00001800002030B50446002504E0F2
:103140004FF47A7000F004F86D1CA542F8D330BD3E
:1031500070B5034600224FF0E02675690D4E3688A3
:1031600003FB06F44FF0E026B16910E04FF0E026D3
:10317000B06988420BD0884202D20E1A324402E073
:103180002E1A0E4432440146A24200D300E0EDE77D
:1031900000BF70BD1800002038B504468DF800004F
:1031A00069460320ABBE204638BD00001CB5002098
:1031B00002239A044FF4E0010090FFF707FF4FF459
:1031C000E13001F0A9FE40F2473140F2E73002F071
:1031D000D3FB00F0EDFD00F06FFB8E48FFF74CFED7
:1031E000022206210020FFF76BFB032206210C20A0
:1031F000FFF766FB01200C235F22062100901820B8
:1032000000F0DCFE0C2384A20621222000F0BEFF89
:1032100001200C233A2206210090362000F0CEFE39
:103220000C237EA206213E2000F0B0FF0C237DA2DD
:103230000621622000F0AAFF02221A210020FFF7D7
:103240003FFB03221A210C20FFF73AFB01200C233D
:103250005F221A210090182000F0B0FE0C2372A209
:103260001A21222000F092FF01200C233A221A2179
:103270000090362000F0A2FE0C2368A21A213E2006
:1032800000F084FF0C2367A21A21622000F07EFF69
:1032900002222E210020FFF713FB03222E210C20F7
:1032A000FFF70EFB01200C235F222E210090182037
:1032B00000F084FE0C235DA22E21222000F066FF88
:1032C00001200C233A222E210090362000F076FEB9
:1032D0000C2352A22E213E2000F058FF0C2351A2B5
:1032E0002E21622000F052FF00F042FE0222062151
:1032F000002000F033FA032206210C2000F02EFA01
:1033000001200C235F2206210090182000F0D4FB3E
:103310000C2341A20621222000F0B6FC01200C2340
:103320003A2206210090362000F0C6FB0C233BA277
:1033300006213E2000F0A8FC0C233AA206216220C0
:1033400000F0A2FC02221A21002000F007FA03225A
:103350001A210C2000F002FA01200C235F221A210E
:103360000090182000F0A8FB0C232FA21A21222085
:1033700000F08AFC01200C233A221A21009036200A
:1033800000F09AFB0C2325A21A213E2000F07CFCC1
:103390000C2324A21A21622000F076FC02222E21A6
:1033A000002000F0DBF903222E210C2000F0D6F9DA
:1033B00001200C235F222E210090182000F07CFBBE
:1033C0000C231AA22E21222000F05EFC01200C23E7
:1033D0003A222E210090362000F06EFB0C230FA223
:1033E0002E213E2000F050FC0C230EA22E21622044
:1033F00000F04AFC00F03AFB0D4801210023802236
:10340000CDE900100BA10E4803F06EF902F0FAFDB1
:103410001CBD0000F803002041564500303030301C
:103420002E3000004E0000004D4158004D494E0026
:103430000400002073746172745F7461736B000028
:103440006D52000810B50120FFF782FE10BD00008C
:1034500000B585B000BF00BF1948806940F0080082
:10346000174988610846806900F00800009000BF95
:1034700000BF00BF00BF00BF0846806940F00800E1
:1034800088610846806900F00800009000BF00BF16
:1034900000BF40200190012002900390032004907F
:1034A00001A90848FEF720F8802001901120029021
:1034B00001A90448FEF718F800F062F805B000BD55
:1034C00000100240000C014070B50446002524E0C5
:1034D00000BFE00928B1012280211548FEF7A6F9B6
:1034E00004E0002280211248FEF7A0F900BFFFF798
:1034F000A9FF00BF012240210D48FEF797F900BF48
:10350000FFF7A0FF00BF002240210948FEF78EF917
:1035100000BF6006040E681CC5B2082DD8DB00BFD2
:10352000012280210248FEF781F900BF70BD000032
:10353000000C014010B500BF012280210F48FEF7AA
:1035400075F900BF00BF012240210C48FEF76EF95B
:1035500000BFFFF777FF00BF002280210748FEF77A
:1035600065F900BFFFF76EFF00BF0022402103484E
:10357000FEF75CF900BFFFF765FF10BD000C0140CE
:1035800010B500BF002280210C48FEF74FF900BFA4
:10359000FFF758FF00BF012240210848FEF746F917
:1035A00000BFFFF74FFF00BF012280210348FEF755
:1035B0003DF900BFFFF746FF10BD0000000C0140C1
:1035C00070B50024002500BF012280211448FEF7B9
:1035D0002DF900BFFFF736FF00BF01224021104840
:1035E000FEF724F900BFFFF72DFF07E0601CC4B20F
:1035F000FA2C03DDFFF7C4FF012505E08021084810
:10360000FEF702F90028F1D100BF00BF00224021DF
:103610000348FEF70BF900BFFFF714FF284670BD03
:10362000000C014000B585B000BF00BF1E48806996
:1036300040F004001C4988610846806900F00400DD
:10364000009000BF00BF00BF00BF00BF08468069F8
:1036500040F0040088610846806900F00400009092
:1036600000BF00BF00BF2020019001200290039006
:103670000320049001A90D48FDF736FF402001907A
:1036800001A90A48FDF730FF00BF012220210748A9
:10369000FEF7CCF800BF00BF002240210348FEF730
:1036A000C5F800BF05B000BD001002400008014091
:1036B00010B5FEF7D3F84FF4E01001F01BFE4820E0
:1036C000FFF712FD002000F007F8FFF7ABFFFFF750
:1036D0006DFD002010BD000030B5044602250849EC
:1036E00051F8241001FB05F2064951F8240000218D
:1036F00000F02AF801210348001D015530BD0000EB
:103700007C9D00086C03002010B5014600230022B8
:1037100007E00B4850F8210030F8120000B15B1CA4
:10372000521C084850F821009042F2D84FF47A70A9
:103730005843044C54F82140B0FBF4F080B210BD63
:103740006C0300207C9D000830B5034601E003F8BF
:10375000011B141EA2F10102F9D130BD2DE9FC4F6D
:1037600005460F46904601950097B8F1050F0ED219
:10377000DFE808F0030507090B00264C09E0264C9A
:1037800007E0264C05E0264C03E0264C01E0BDE8AE
:10379000FC8F00BF002639E04FF0000931E006EB56
:1037A000460004EB800010F809B04FF0000A15E065
:1037B0000BF0010028B101223946284600F04CF8F0
:1037C00004E000223946284600F046F84FEA6B0B29
:1037D000781CC7B20AF1010000F0FF0ABAF1080F25
:1037E000E6DB681CC5B20198281A0C2804D1019D9B
:1037F00000980830C0B20090009F09F1010000F06D
:10380000FF09B9F10C0FCADB701CC6B2022EC3DB74
:1038100000BFBCE7C6010020DE010020F601002049
:103820000E0200202602002070B500240CE00025C6
:1038300006E00020074901EBC5010855681CC5B228
:10384000802DF6DB601CC4B2082CF0DB00F00EF912
:1038500070BD0000BC0D0020F0B5144600267F2886
:1038600001DC3F2900DDF0BD0B46CF1701EB577798
:10387000C7F3C702CF1701EB5777FF10A1EBC707BC
:10388000FDB20123AB40DEB24CB10A4B03EBC003E7
:103890009B5C3343074F07EBC007BB5408E0054B65
:1038A00003EBC0039B5CB343024F07EBC007BB5461
:1038B00000BFD8E7BC0D002010B5FEF70BFF642059
:1038C000FFF73AFC0021AE2000F00DFA0021084677
:1038D00000F009FA0021102000F005FA0021402034
:1038E00000F001FA0021B02000F0FDF90021812054
:1038F00000F0F9F90021CF2000F0F5F90021A12016
:1039000000F0F1F90021A62000F0EDF90021A82037
:1039100000F0E9F900213F2000F0E5F90021C8207E
:1039200000F0E1F90021D32000F0DDF90021084684
:1039300000F0D9F90021D52000F0D5F90021802030
:1039400000F0D1F90021D92000F0CDF90021F120BB
:1039500000F0C9F90021DA2000F0C5F90021122099
:1039600000F0C1F90021DB2000F0BDF9002130207A
:1039700000F0B9F900218D2000F0B5F900211420E4
:1039800000F0B1F90021AF2000F0ADF9FFF74CFFD6
:1039900010BD00002DE9F041A0B0002550E0FF2649
:1039A0004FF0000800240FE0284800EBC400405D01
:1039B000274901EBC401495D884203D0FF2E00D1A5
:1039C0002646A046601CC4B2802CEDDB464535DCA3
:1039D00005F1B001C8B2002100F085F906F00F0032
:1039E000002100F080F9102141EA1610002100F0BA
:1039F0007AF9A8EB0600401CC7B2002411E0301988
:103A0000124901EBC000405D0DF80400301901EBD4
:103A1000C000405D31190E4A02EBC1014855601CDF
:103A2000C4B2BC42EBDB002406E01DF80400012117
:103A300000F059F9601CC4B2BC42F6DB681CC5B288
:103A4000082DACDB20B0BDE8F0810000BC0D0020EB
:103A5000BC11002010B50246012000E050430B1EAF
:103A6000A1F10104E1B2F9D110BD000070B500244C
:103A70001CE004F1B001C8B2002100F034F90021CB
:103A8000084600F030F90021102000F02CF9002544
:103A900008E0084901EBC501085D012100F023F9A8
:103AA000681CC5B2802DF4DB601CC4B2082CE0DBBE
:103AB00070BD0000BC0D00202DE9FE4F80460E4673
:103AC00015461C46DDF83090B34600200190204694
:103AD000E31704EB5373DB1021464FEAE47C04EB5D
:103AE0005C7C4FEAEC0CA4EBCC0CBCF1000F02D0D8
:103AF0004FF0010C01E04FF0000C6344224604EB50
:103B0000D27C4FEA6C0C03FB0CF3DBB20093A5F103
:103B10002000C5B20C2C06D105EB4500294901EB6C
:103B20008000019011E0102C04D1274800EB051013
:103B300001900AE0182C06D105EBC500234901EBE2
:103B40008000019001E0BDE8FE8F002734E001987D
:103B5000C05D02904FF0000A28E0029800F080005B
:103B600028B14A4631464046FFF776FE0AE0B9F1F1
:103B7000000F01D1012000E00020024631464046FE
:103B8000FFF76AFE02984006000E0290701CC6B253
:103B9000A6EB0B00A04205D15E4608F1010000F043
:103BA000FF0806E00AF1010000F0FF0ABAF1080F71
:103BB000D3DB00BF781CC7B200988742C7DB00BFC9
:103BC000C1E70000BA8500082E8A00081E90000890
:103BD0002DE9FF4F83B0064691461F46DDE9104AA6
:103BE0000020029000254AE0781B401EC1B20A2046
:103BF000FFF730FFB9FBF0F00A21B0FBF1F201FB57
:103C00001208029840BB781EA84225DDB8F1000FCB
:103C100020D10AF0800070B10120A34604EBDB71D3
:103C2000491001FB05610090C8B223463022049977
:103C3000FFF742FF0DE00120A34604EBDB714910C2
:103C400001FB05610090C8B2234620220499FFF7CA
:103C500033FF12E0012002900120A34604EBDB7148
:103C6000491001FB05610090C8B208F13001CAB2E9
:103C700023460499FFF720FF00BF681CC5B2BD4270
:103C8000B2DB07B0BDE8F08FF8B506460F46154623
:103C90001C4621E004EBD4714910C1F18001B1420E
:103CA00002DA00263819C7B2C4F14000B84204DA7B
:103CB000002006460746FFF7B7FD012000902A784E
:103CC000234639463046FFF7F7FE204604EBD07115
:103CD00006EB6101CEB26D1C28787E2802DC2878C4
:103CE0002028D7DAF8BD70B505460C46FEF768FD0A
:103CF0007820FEF72DFDFEF7ABFD1CB14020FEF74E
:103D000027FD02E00020FEF723FDFEF7A1FD284677
:103D1000FEF71EFDFEF79CFDFEF77AFD70BD00006C
:103D200070B500240CE0002506E00020074901EBF7
:103D3000C5010855681CC5B2802DF6DB601CC4B2F5
:103D4000082CF0DB00F014F970BD0000BC05002069
:103D5000F0B5144600267F2801DC3F2900DDF0BDC8
:103D60000B46CF1701EB5777C7F3C702CF1701EB0D
:103D70005777FF10A1EBC707FDB20123AB40DEB2BE
:103D80004CB10A4B03EBC0039B5C3343074F07EB7B
:103D9000C007BB5408E0054B03EBC0039B5CB34377
:103DA000024F07EBC007BB5400BFD8E7BC0500209B
:103DB00010B5FFF74DFB6420FFF7BEF94FF48061AB
:103DC0003448FCF730FA0021AE2000F00EFA002152
:103DD000084600F00AFA0021102000F006FA00213F
:103DE000402000F002FA0021B02000F0FEF900218E
:103DF000812000F0FAF90021CF2000F0F6F900212F
:103E0000A12000F0F2F90021A62000F0EEF9002137
:103E1000A82000F0EAF900213F2000F0E6F9002197
:103E2000C82000F0E2F90021D32000F0DEF90021E3
:103E3000084600F0DAF90021D52000F0D6F900217B
:103E4000802000F0D2F90021D92000F0CEF9002125
:103E5000F12000F0CAF90021DA2000F0C6F90021B3
:103E6000122000F0C2F90021DB2000F0BEF9002191
:103E7000302000F0BAF900218D2000F0B6F90021C1
:103E8000142000F0B2F90021AF2000F0AEF9FFF7E6
:103E900047FF10BDBC0900202DE9F041A0B000256E
:103EA00050E0FF264FF0000800240FE0284800EB08
:103EB000C400405D274901EBC401495D884203D03D
:103EC000FF2E00D12646A046601CC4B2802CEDDB3C
:103ED000464535DC05F1B001C8B2002100F085F996
:103EE00006F00F00002100F080F9102141EA1610C1
:103EF000002100F07AF9A8EB0600401CC7B20024AC
:103F000011E03019124901EBC000405D0DF80400CA
:103F1000301901EBC000405D31190E4A02EBC101BE
:103F20004855601CC4B2BC42EBDB002406E01DF81F
:103F30000400012100F059F9601CC4B2BC42F6DB58
:103F4000681CC5B2082DACDB20B0BDE8F0810000D4
:103F5000BC050020BC09002010B50246012000E08D
:103F600050430B1EA1F10104E1B2F9D110BD0000D4
:103F700070B500241CE004F1B001C8B2002100F0CB
:103F800034F90021084600F030F90021102000F03B
:103F90002CF9002508E0084901EBC501085D012165
:103FA00000F023F9681CC5B2802DF4DB601CC4B29C
:103FB000082CE0DB70BD0000BC0500202DE9FE4FA1
:103FC00080460E4615461C46DDF83090B34600206C
:103FD00001902046E31704EB5373DB1021464FEAB0
:103FE000E47C04EB5C7C4FEAEC0CA4EBCC0CBCF165
:103FF000000F02D04FF0010C01E04FF0000C6344C1
:10400000224604EBD27C4FEA6C0C03FB0CF3DBB2D0
:104010000093A5F12000C5B20C2C06D105EB45009C
:10402000294901EB8000019011E0102C04D12748B0
:1040300000EB051001900AE0182C06D105EBC50035
:10404000234901EB8000019001E0BDE8FE8F0027CD
:1040500034E00198C05D02904FF0000A28E0029819
:1040600000F0800028B14A4631464046FFF770FE16
:104070000AE0B9F1000F01D1012000E00020024662
:1040800031464046FFF764FE02984006000E02905B
:10409000701CC6B2A6EB0B00A04205D15E4608F12B
:1040A000010000F0FF0806E00AF1010000F0FF0A3D
:1040B000BAF1080FD3DB00BF781CC7B20098874263
:1040C000C7DB00BFC1E70000FA6D00086E72000890
:1040D0005E7800082DE9FF4F83B0064691461F46E3
:1040E000DDE9104A0020029000254AE0781B401EBE
:1040F000C1B20A20FFF730FFB9FBF0F00A21B0FB94
:10410000F1F201FB1208029840BB781EA84225DD9F
:10411000B8F1000F20D10AF0800070B10120A34651
:1041200004EBDB71491001FB05610090C8B2234626
:1041300030220499FFF742FF0DE00120A34604EB73
:10414000DB71491001FB05610090C8B223462022B3
:104150000499FFF733FF12E0012002900120A346EB
:1041600004EBDB71491001FB05610090C8B208F156
:104170003001CAB223460499FFF720FF00BF681C34
:10418000C5B2BD42B2DB07B0BDE8F08FF8B5064658
:104190000F4615461C4621E004EBD4714910C1F1CD
:1041A0008001B14202DA00263819C7B2C4F14000DA
:1041B000B84204DA002006460746FFF7B1FD0120A9
:1041C00000902A78234639463046FFF7F7FE20460E
:1041D00004EBD07106EB6101CEB26D1C28787E280D
:1041E00002DC28782028D7DAF8BD70B505460C46E1
:1041F000FFF7A0F97820FFF767F9FFF7E1F91CB1A5
:104200004020FFF761F902E00020FFF75DF9FFF7BA
:10421000D7F92846FFF758F9FFF7D2F9FFF7B0F9B9
:1042200070BD00002DE9F04105460E46294807689B
:1042300000202949096881F8590027480068001DB5
:1042400001F0C2FB50B92448006890F82C100120FE
:10425000884022490968814320480160681CD8B918
:10426000D6B11F4948681C49096888601A498268A4
:104270000968CA6018490968091D826851601649B1
:104280000968091D8160164A134909684A61114687
:104290000968491C11601AE07C190F4800684460E5
:1042A000BC4207D20C480168091D0E48006801F0A5
:1042B000AFFB0CE008480168091D0B48006801F0DD
:1042C000A7FB0A480068844201D208480460BDE8A0
:1042D000F081000088030020740300208C0300207C
:1042E000102600207C03002078030020A403002077
:1042F00010B5044601F0B2FB31480068401C30495B
:1043000008603048006840B92E48046008460068DC
:1043100001280DD100F016FA0AE02B48006838B9E0
:1043200028480068C06AE16A884201D825480460CC
:1043300026480068401C25490860084600686064FB
:1043400094F82C100120884021490968084320492D
:104350000860E16A01EB81011E4A02EB81014868B5
:10436000A0608268E260211D826851608160E16A1C
:1043700001EB8101174A02EB81026261E16A01EB04
:104380008101144A52F82110491CE26A02EB8202B0
:10439000104B43F8221001F0ABFB0B48006868B1EA
:1043A00008480068C06AE16A884207D24FF080502E
:1043B00009490860BFF34F8FBFF36F8F10BD000036
:1043C000840300207403002090030020A003002039
:1043D0008C0300204023002004ED00E010B501F024
:1043E0003DFB10480068D0B90F4801F001FB0F48B1
:1043F00001F0FEFA0C480E4908600C480D490860AF
:1044000000221021052001F083FF064908600846BC
:10441000006820B108A10348006801F029FC01F000
:1044200067FB10BDBC030020242600203826002096
:10443000B4030020B8030020546D72510000000046
:1044400010B516E001F00AFB0C48C068C468201DD6
:1044500001F0BAFA0A480068401E09490860094894
:104460000068401E0749086001F042FB204600F04A
:104470005FF8044800680028E4D110BDFC25002046
:10448000840300208003002070B504460D46206C94
:1044900070B1216CE0680144E160D4E90210884207
:1044A00001D32168E1602846226CE168FBF7A2FE97
:1044B00070BD2DE9F04104460F4615464FF0000847
:1044C000A66B206C48B9206800282CD1A06802F0A7
:1044D00045FA80460020A06025E07DB93946226C6F
:1044E0006068FBF787FE216C606808446060D4E96F
:1044F0000101884217D32068606014E03946226CBD
:10450000E068FBF777FE216CE068411AE160216802
:10451000E068884203D2216CA068411AE160022D54
:1045200001D106B1761E701CA0634046BDE8F08143
:1045300010B50446206B01F019FB204601F016FB74
:1045400010BD00000146084A126812680AB901222B
:1045500000E000220A600A6822B9034A1268D268A1
:10456000106800E000207047B403002030B54FF41D
:10457000C053174800F007042CB1C01D20F00700FD
:10458000134C041B1B1B0246124C22600024114DCD
:104590006C60D018083820F007000F4C2060002411
:1045A0000D4D2D686C600C4D2D682C601146441A21
:1045B0004C60094C24680C60084D4C682C60084D18
:1045C0004C682C604FF00044064D2C6030BD00005C
:1045D0004C260020C8030020D0030020D803002070
:1045E000D4030020E403002000BFFFF729FF0648A2
:1045F00000680128F9D94FF0805004490860BFF3E2
:104600004F8FBFF36F8FF0E74023002004ED00E0F1
:104610002DE9F04106460D4617469846069C0DB911
:10462000246000E02760E66325640121204601F054
:10463000B7FE84F850800020A064BDE8F08100003F
:104640002DE9F05F82460F4690469B460A9E0C9CE1
:104650004FEA8801A522206BFBF7DEFDA8F10100DF
:10466000216B01EB800929F0070909F0070008B95F
:10467000012000E0002028B94FF4587224A12DA099
:10468000FEF7B8FA87B1002507E0795D04F1340040
:104690004155785D00B902E06D1C102DF5D300BFC7
:1046A00000214320015502E0002084F83400202E30
:1046B00001D2012000E0002028B940F2973214A175
:1046C0001CA0FEF797FA202E00D31F26E662E664B0
:1046D00000202065201D01F098F904F1180001F078
:1046E00094F92461C6F12000A06164620020606535
:1046F00084F8580084F859005A465146484600F05C
:10470000F9FB20600B9808B10B980460BDE8F09F9E
:104710002E2E5C2E2E5C4D6964646C65776172652B
:10472000735C4672656552544F535C7461736B736E
:104730002E6300004572726F723A2025732C20257B
:10474000640D0A0010B5002407E004EB84010F4A51
:1047500002EB810001F04CF9641C202CF5D30C48CD
:1047600001F046F90B4801F043F90B4801F040F91C
:104770000A4801F03DF90A4801F03AF904480949AC
:10478000086004480849086010BD0000402300206C
:10479000C0250020D4250020E8250020FC2500208D
:1047A00010260020780300207C03002010B501466D
:1047B000164800E0006803688B42FBD3024643685A
:1047C00013448B4204D143684C6823444360014640
:1047D0000A464B6813440468A34211D10C4C036889
:1047E0002468A34208D04B680468646823444B6083
:1047F00003681B680B6005E0054B1B680B6001E05C
:1048000003680B60884200D0016010BDC80300201F
:10481000D00300202DE9F04104460D4616461F4600
:104820004FF0000865602461B5420CD8F01BA16907
:10483000884202D34FF0010811E0211D09480068A9
:1048400001F0E6F80BE0BE4204D2BD4202D34FF0C5
:10485000010804E0211D0448006801F0D9F8404631
:10486000BDE8F081B8030020B403002070B5054610
:1048700001F0F4F8A86B08B9012400E0002401F06D
:1048800037F9204670BD0000F1B50098846C002611
:104890002CB940F6D53220A128A0FEF7ABF9A06BC9
:1048A000E16B884201D2012000E0002028B940F6E7
:1048B000D63219A121A0FEF79DF9A06BE16B8842C9
:1048C00027D294F94550002269462046FFF7F1FDB2
:1048D0000646681C60B9606A08B9012000E0002043
:1048E000B0B904F1240002F0C1F888B101260FE04C
:1048F0007F2D01D0012000E0002028B940F6F632DB
:1049000005A10EA0FEF776F9681C40B284F84500B8
:1049100000BF3046F8BD00002E2E5C2E2E5C4D6987
:1049200064646C6577617265735C46726565525448
:104930004F535C71756575652E6300004572726F2B
:10494000723A2025732C2025640D0A0070B50546A7
:104950000E460E480068C068C468201D01F034F897
:1049600094F8280000F0040028B132462946204679
:1049700000F0FEF805E094F8280000F0FE0084F84E
:1049800028002046216A884770BD0000B40300203B
:1049900070B586B08AE0029800280CDA03AE2EB912
:1049A00040F2063247A150A0FEF724F9D6E90020D4
:1049B000B168904700BF0298002877DB049C6069CB
:1049C00008B9012000E0002010B9201D00F0FCFF14
:1049D00001A800F0F9F8054602980A2864D2DFE839
:1049E00000F06305072E365306082F3700BF00BFBF
:1049F00000BF94F8280040F0010084F828000398D4
:104A0000A269811803462A462046FFF703FFA8B192
:104A100094F8280000F0040038B10398A2698118C6
:104A20002A46204600F0A4F805E094F8280000F09B
:104A3000FE0084F828002046216A884735E000BF40
:104A400094F8280000F0FE0084F828002DE000BF54
:104A500094F8280040F0010084F828000398A06131
:104A6000A06908B1012000E0002028B940F25932C5
:104A700014A11DA0FEF7BEF8A06941192B462A46D5
:104A80002046FFF7C7FE10E094F8280000F002006F
:104A900018B9204601F06AF805E094F8280000F003
:104AA000FE0084F8280000E000BF00BF002202A939
:104AB0001148006801F0F2FC00287FF46CAF06B0EA
:104AC00070BD00002E2E5C2E2E5C4D6964646C65FA
:104AD00077617265735C4672656552544F535C74BE
:104AE000696D6572732E63004572726F723A20258C
:104AF000732C2025640D0A00BC030020F8B5054680
:104B00000C4601F0E1FA684600F05EF806460098AF
:104B100020BB44B9B54206D802F04EF831462846CB
:104B2000FFF714FF1CE03CB10E480068006808B9AC
:104B3000012000E000200446A91B22460A48006824
:104B400001F0DCF802F038F850B94FF08050074916
:104B50000860BFF34F8FBFF36F8F01E002F02CF8B6
:104B6000F8BD0000B8030020BC03002004ED00E005
:104B700070B504460D46164604E0A069054420467B
:104B8000216A8847A06941192B4632462046FFF723
:104B900041FE0028F1D170BD09480068006808B9DD
:104BA000012000E0002020B14FF0FF3005490860EF
:104BB00005E003480068C068006802490860704763
:104BC00078030020A403002070B5044601F0CCFD5A
:104BD000054607480068854204D200F00BF8012022
:104BE000206001E00020206001480560284670BD7B
:104BF000C403002070B508E00D480068C068046870
:104C00004FF0FF312046FFF7A1FE09480068006819
:104C100008B9012000E000200028EDD00448056814
:104C200004480068024908600248056070BD000041
:104C3000B4030020B80300200B480068401C08B9EA
:104C4000012000E0002020B9D22208A115A0FDF724
:104C5000D1FF00BF402080F31188BFF34F8FBFF317
:104C60006F8F00BF00BFFEE7E80300202E2E5C2EF2
:104C70002E5C4D6964646C6577617265735C467225
:104C8000656552544F535C706F727461626C655C01
:104C9000525644535C41524D5F434D335C706F72CA
:104CA000742E63004572726F723A2025732C202592
:104CB000640D0A0008B500BF6846FFF743FC0446D0
:104CC00020460099FFF71AFFFFF762FEF4E770B580
:104CD000044600F0C3FE94F9455019E0A06C30B1D1
:104CE0002046FFF7D1FD88B101F00EF90EE0606AB1
:104CF00008B9012000E0002038B904F1240001F0D7
:104D0000B5FE18B101F000F900E003E0681E45B2FD
:104D1000002DE3DC00BFFF2084F8450000F0E8FE32
:104D200000F09CFE94F9445010E0206908B901207D
:104D300000E0002048B904F1100001F097FE08B12E
:104D400001F0E2F8681E45B200E001E0002DECDC65
:104D500000BFFF2084F8440000F0CAFE70BD0000D0
:104D60002DE9F04104464FF0000801F0ADF9494843
:104D7000006808B9FFF7FAFB4748006820400028A0
:104D800075D1002C23D004F10800A0421FD90834AB
:104D900004F0070000281BD004F00700C0F1080051
:104DA0002044A04211D904F00700C0F108000444D7
:104DB00004F0070008B9012000E0002040B99C225F
:104DC00036A144A0FDF716FF02E0002400E0002415
:104DD000002C4CD043480068844248D8424E3046AC
:104DE000056801E02E462D686868A04202D2286856
:104DF0000028F7D127480068854238D0306800F194
:104E00000808286830606868001B102813D92F191B
:104E100007F0070008B9012000E0002020B9CF22E8
:104E20001EA12CA0FDF7E6FE6868001B78606C6090
:104E30003846FFF7BBFC2B4968680968081A2949FE
:104E400008600846006829490968884203D2254855
:104E50000068264908601049686809680843686066
:104E60000020286022480068401C2149086001F0A9
:104E7000A3FE08F0070008B9012000E0002028B9CF
:104E80004FF4887205A113A0FDF7B4FE4046BDE8BB
:104E9000F0810000D0030020E40300202E2E5C2EC1
:104EA0002E5C4D6964646C6577617265735C4672F3
:104EB000656552544F535C706F727461626C655CCF
:104EC0004D656D4D616E675C686561705F342E6322
:104ED000000000004572726F723A2025732C202565
:104EE000640D0A00D4030020C8030020D80300206A
:104EF000DC030020001F4FF080730360001F21F0CF
:104F000001030360001F034B036014380260203864
:104F100070470000394C000810B586B0044600BF49
:104F200000BF4248806940F004004049886108465B
:104F3000806900F00400019000BF00BF00BF00BF07
:104F400000BF0846806940F0040088610846806917
:104F500000F00400019000BF00BF00BF00BF00BF11
:104F60000846806940F0040088610846806900F0C6
:104F70000400019000BF00BF00BF00BF00BF084693
:104F8000806940F4804088610846806900F4804070
:104F9000019000BF00BF00BF48150290022003909F
:104FA000012004900320059002A92148FCF79CFAF7
:104FB0004FF4806002900020039002A91C48FCF787
:104FC00093FA4FF480700290012003900490032024
:104FD000059002A91648FCF787FA1648164908609A
:104FE0000846446000218160C160016181610C213B
:104FF0004161FDF759FA10480068C06840F0200090
:105000000D490968C8602520FCF763FC00220721D0
:105010002520FCF76EFC00BF00224FF4807104488D
:10502000FCF704FC00BF06B010BD000000100240F9
:105030000008014000380140BC15002070B503464F
:1050400014460D4D2A78002000250D700A4D2D784C
:10505000AA4210D1A2420ED100BF04E0074D2D5C40
:105060001D54451CE8B29042F8DB034D2D780D70BD
:105070000025014E357070BD5E030020FC15002038
:1050800070B504460D4600BF012211020B48FCF723
:10509000CDFB00BF4FF47A732A4621460848FDF73E
:1050A000A9FA00200749087000BF00224FF4807160
:1050B0000248FCF7BBFB00BF70BD000000080140C8
:1050C000BC1500205E0300202DE9F0438DB004469E
:1050D000884616464FF000095CA103C9CDE90A01D4
:1050E0005CA103C9CDE908015CA103C9CDE90601B2
:1050F0005CA103C9CDE90401B8F1010F23D1FCF78C
:105100009BFB054626B9082106A8FFF7B9FF05E075
:10511000012E03D1082104A8FFF7B2FF0DE00822F9
:105120000CA901A8FFF78AFF9DF8300008B10127FC
:1051300008E000276420FEF70BF8FCF77DFB401B1E
:105140000528ECD300BF082108A8FFF799FF002726
:1051500000200C90FCF770FB05460CE009220CA91E
:1051600001A8FFF76BFF9DF8300008B1012707E0A9
:105170006420FDF7EDFFFCF75FFB401B0328EDD338
:1051800000BF072101A8FBF753FB81469DF80B00E8
:105190009DF80C1040EA012048450ED1012F0CD19A
:1051A0009DF80700E0719DF80800A0719DF80900C6
:1051B00060719DF80A00207104E0FF20E071A07189
:1051C00060712071002708210AA8FFF759FF00200D
:1051D0000C90FCF731FB05460DE009220CA901A853
:1051E000FFF72CFF9DF83000092801D1012707E0C7
:1051F0006420FDF7ADFFFCF71FFB401B1428ECD328
:1052000000BF072101A8FBF713FB81469DF80B00A7
:105210009DF80C1040EA012048450ED1012F0CD119
:105220009DF80700E0709DF80800A0709DF8090047
:1052300060709DF80A00207004E0FF20E070A0700C
:105240006070207000270DB0BDE8F08301030000FE
:105250000002C40B010300200002C5C101060009C1
:10526000000059C801060009000198081CB5044651
:1052700000F0F4FB1248032100238022CDE9001046
:1052800010A1124801F030FA1148022100238022B7
:10529000CDE900100FA1114801F026FA10480421B1
:1052A00000238022CDE900100EA1104801F01CFA65
:1052B0000F48006800F08AFD00F01AFC1CBD0000D9
:1052C000080000207461736B310000004D5300082A
:1052D0000C0000207461736B32000000C558000898
:1052E000100000207461736B3300000049590008FE
:1052F0000400002030B58FB0054601240120059040
:10530000000406900020079002200C90C1030D912C
:105310000E9505A8FCF79AFD04460CB100BFFEE708
:105320000F20009002200190002002904FF4806036
:1053300003900020049002216846FCF751FC0446CB
:105340000CB100BFFEE70FB030BD000092B04FF0CF
:10535000000AD3462820FDF765FDA6E2FE48007846
:1053600001287CD100248DE200200B900C900D9040
:10537000FA4A07CA08AB07C300200790401E0690F0
:1053800000201190002686E0022000FB0640F44930
:1053900031F81010119808441190022000FB0640CB
:1053A000EF4931F810100798814207D9022000FB1D
:1053B0000640EB4931F8100007900FE0022000FB97
:1053C0000640E74931F810100698814206D20220C3
:1053D00000FB0640E24931F810000690022000FB75
:1053E0000640DF4931F81000BDF82C10884207DD77
:1053F000022000FB0640DA4931F81000ADF82C001D
:10540000002516E00BA830F815100BAA681C32F81E
:10541000100081420BDD0BA830F815A00BA9681C09
:1054200031F8100021F81500681C21F810A0681C44
:1054300085B2042DE6DB022000FB0640C84931F8A6
:105440001000BDF82010884207DA022000FB064059
:10545000C34931F81000ADF82000002517E01BE229
:1054600008A830F8151008AA681C32F8100081420C
:105470000BDA08A830F815B008A9681C31F810003C
:1054800021F81500681C21F810B0681C85B2042DA5
:10549000E6DB701C86B2142EFFF676AF07991198E2
:1054A000411A0698081A1221B0FBF1F01FFA80F891
:1054B0004FF0000A002507E00BA830F81500504413
:1054C0001FFA80FA681C85B2052DF5DB05209AFBD2
:1054D000F0F087B24FF0000B002507E008A830F885
:1054E000150058441FFA80FB681C85B2052DF5DBBA
:1054F00005209BFBF0F01FFA80F9002C3AD1B7F59C
:105500007A6F12DB0C2397A206213E20FEF73EFEA7
:105510000C2394A21A213E20FEF738FE0C2391A200
:105520002E213E20FEF732FEAFE10C2390A2062191
:105530003E20FEF72BFE0C238FA206216220FEF7F1
:1055400025FE0C238AA21A213E20FEF71FFE0C2303
:1055500089A21A216220FEF719FE0C2384A22E21B3
:105560003E20FEF713FE0C2383A22E216220FEF7BD
:105570000DFE39E0B7F57A6F12DB0C2379A2062114
:105580003E20FEF781FB0C2376A21A213E20FEF777
:105590007BFB0C2373A22E213E20FEF775FB74E1EA
:1055A0000C2373A206213E20FEF76EFB0C2372A291
:1055B00006216220FEF768FB0C236DA21A213E2013
:1055C000FEF762FB0C236CA21A216220FEF75CFB43
:1055D0000C2367A22E213E20FEF756FB0C2366A269
:1055E0002E216220FEF750FB4046FAF723FF019080
:1055F000FAF739FF4FF06632604BCDE90201FAF756
:10560000A7FECDE90401FAF741FF10905C4910981C
:10561000FAF76CFE5B490590FAF768FE0F90B8F157
:10562000030F01DA00200F900F98FAF708FF80B2FD
:105630000E9054B900200C210423CDE9001006215E
:105640003E200E9AFEF746FD0BE0012C09D100200A
:105650000C210423CDE9001006213E200E9AFEF70E
:10566000B7FA0E98FAF7E6FE05900F99FAF73BFEA7
:105670000F9045490F98FAF739FE0F9074B90F98BB
:10568000FAF7DDFE059080200C210123CDE9001002
:1056900006215C20059AFEF71DFD0BE0012C09D1C7
:1056A00080200C210123CDE9001006215C200E9AF8
:1056B000FEF78EFA3846FAF7BDFE0190FAF7D3FEF0
:1056C0004FF066322D4BCDE90201FAF741FECDE9EC
:1056D0000401FAF7DBFE109029491098FAF706FE4C
:1056E00028490590FAF702FE0F90032F01DA0020F7
:1056F0000F900F98FAF7A3FE80B20E9054B90020D5
:105700000C210423CDE900101A213E200E9AFEF749
:10571000E1FC0BE0012C09D100200C210423CDE990
:1057200000101A213E200E9AFEF752FA0E98FAF750
:1057300081FE05900F99FAF7D6FD0F9012490F9848
:10574000FAF7D4FD0F904CBB0F98FAF778FE05904E
:1057500080200C21012319E025000020F06D0008B5
:10576000F803002045525220202020202020000055
:10577000202020202E2000004E00000066664A3FB8
:1057800000009643CDCC1C4100002041CDE9001023
:105790001A215C20059AFEF79DFC0BE0012C09D133
:1057A00080200C210123CDE900101A215C200E9AE3
:1057B000FEF70EFA4846FAF73DFE0190FAF753FE5F
:1057C0004FF06632394BCDE90201FAF7C1FDCDE960
:1057D0000401FAF75BFE109035491098FAF786FD40
:1057E00034490590FAF782FD0F90B9F1030F01DA01
:1057F00000200F900F98FAF722FE80B20E9054B955
:1058000000200C210423CDE900102E213E200E9A09
:10581000FEF760FC0BE0012C09D100200C210423D1
:10582000CDE900102E213E200E9AFEF7D1F90E98F8
:10583000FAF700FE05900F99FAF755FD0F901E49F3
:105840000F98FAF753FD0F9074B90F98FAF7F7FD18
:10585000059080200C210123CDE900102E215C2031
:10586000059AFEF737FC0BE0012C09D180200C21B2
:105870000123CDE900102E215C200E9AFEF7A8F935
:10588000601C84B2022CFFF66FAD00BF00200B49F4
:1058900008702820FDF7C6FA00BF20210848FBF752
:1058A000BBFF00BFC82000F04FFA57E566664A3FCD
:1058B00000009643CDCC1C41000020412500002073
:1058C000000801401FB5002400250026002000909C
:1058D000019034E01A4880788DF80200184840782A
:1058E0008DF80100164800788DF800009DF8020040
:1058F000FA280AD19DF8010038B99DF80000012866
:1059000001D1012502E0002500E00025AC4202D0D3
:1059100001262C4600E000262246314602A8FFF769
:10592000D3FB082202A90220FDF7AAFB00BF4021F9
:105930000448FBF771FF00BF012000F005FAC9E73A
:10594000260000200008014015E000BF402080F341
:105950001188BFF34F8FBFF36F8F00BFFEF79CFA24
:10596000FEF718F84FF47A7000F0EEF9002080F39B
:10597000118800BF00BFE8E730B595B005460C467A
:10598000482103A8FAF74FFC0020019002900D482F
:105990000390202105910494002105910695802112
:1059A000099103A8FCF7F4FC20200190002002904C
:1059B00001A903A8FCF7AAFC03A8FCF73FFD15B05A
:1059C00030BD00000004004001460A69D1E9013001
:1059D0009860D1E9010358605068884201D1886815
:1059E0005060002008611068401E10601068704709
:1059F00000F1080141604FF0FF31816000F10801C2
:105A0000C1600161002101607047002101617047A0
:105A100010B502460B685C1C0CB9106907E002F176
:105A2000080000E04068446824689C42FAD9446851
:105A30004C604C68A160886041600A611468641C15
:105A4000146010BD42684A6093688B609368596027
:105A50009160086103685B1C0360704710B500BF6C
:105A6000402080F31188BFF34F8FBFF36F8F00BFCB
:105A70000B480068401C0A49086008460068012875
:105A80000DD108480068C0B208B9012000E000202C
:105A900028B940F2771204A111A0FDF7ABF810BDB0
:105AA000E803002004ED00E02E2E5C2E2E5C4D69F4
:105AB00064646C6577617265735C467265655254A7
:105AC0004F535C706F727461626C655C52564453E4
:105AD0005C41524D5F434D335C706F72742E6300B6
